{
  "_format": "hh-sol-artifact-1",
  "contractName": "MNEEBet",
  "sourceName": "contracts/MNEEBet.sol",
  "abi": [
    {
      "inputs": [
        {
          "internalType": "address",
          "name": "_mneeToken",
          "type": "address"
        }
      ],
      "stateMutability": "nonpayable",
      "type": "constructor"
    },
    {
      "inputs": [
        {
          "internalType": "address",
          "name": "owner",
          "type": "address"
        }
      ],
      "name": "OwnableInvalidOwner",
      "type": "error"
    },
    {
      "inputs": [
        {
          "internalType": "address",
          "name": "account",
          "type": "address"
        }
      ],
      "name": "OwnableUnauthorizedAccount",
      "type": "error"
    },
    {
      "inputs": [],
      "name": "ReentrancyGuardReentrantCall",
      "type": "error"
    },
    {
      "anonymous": false,
      "inputs": [
        {
          "indexed": true,
          "internalType": "uint256",
          "name": "betId",
          "type": "uint256"
        },
        {
          "indexed": true,
          "internalType": "address",
          "name": "opponent",
          "type": "address"
        }
      ],
      "name": "BetAccepted",
      "type": "event"
    },
    {
      "anonymous": false,
      "inputs": [
        {
          "indexed": true,
          "internalType": "uint256",
          "name": "betId",
          "type": "uint256"
        }
      ],
      "name": "BetCancelled",
      "type": "event"
    },
    {
      "anonymous": false,
      "inputs": [
        {
          "indexed": true,
          "internalType": "uint256",
          "name": "betId",
          "type": "uint256"
        },
        {
          "indexed": true,
          "internalType": "address",
          "name": "creator",
          "type": "address"
        },
        {
          "indexed": true,
          "internalType": "address",
          "name": "opponent",
          "type": "address"
        },
        {
          "indexed": false,
          "internalType": "uint256",
          "name": "amount",
          "type": "uint256"
        },
        {
          "indexed": false,
          "internalType": "string",
          "name": "terms",
          "type": "string"
        },
        {
          "indexed": false,
          "internalType": "uint256",
          "name": "deadline",
          "type": "uint256"
        },
        {
          "indexed": false,
          "internalType": "address",
          "name": "judge",
          "type": "address"
        }
      ],
      "name": "BetCreated",
      "type": "event"
    },
    {
      "anonymous": false,
      "inputs": [
        {
          "indexed": true,
          "internalType": "uint256",
          "name": "betId",
          "type": "uint256"
        },
        {
          "indexed": true,
          "internalType": "address",
          "name": "disputer",
          "type": "address"
        }
      ],
      "name": "BetDisputed",
      "type": "event"
    },
    {
      "anonymous": false,
      "inputs": [
        {
          "indexed": true,
          "internalType": "uint256",
          "name": "betId",
          "type": "uint256"
        },
        {
          "indexed": true,
          "internalType": "address",
          "name": "user",
          "type": "address"
        },
        {
          "indexed": false,
          "internalType": "uint256",
          "name": "amount",
          "type": "uint256"
        }
      ],
      "name": "BetFunded",
      "type": "event"
    },
    {
      "anonymous": false,
      "inputs": [
        {
          "indexed": true,
          "internalType": "uint256",
          "name": "betId",
          "type": "uint256"
        },
        {
          "indexed": false,
          "internalType": "enum MNEEBet.Winner",
          "name": "winner",
          "type": "uint8"
        },
        {
          "indexed": false,
          "internalType": "address",
          "name": "resolvedBy",
          "type": "address"
        }
      ],
      "name": "BetResolved",
      "type": "event"
    },
    {
      "anonymous": false,
      "inputs": [
        {
          "indexed": true,
          "internalType": "address",
          "name": "previousOwner",
          "type": "address"
        },
        {
          "indexed": true,
          "internalType": "address",
          "name": "newOwner",
          "type": "address"
        }
      ],
      "name": "OwnershipTransferred",
      "type": "event"
    },
    {
      "anonymous": false,
      "inputs": [
        {
          "indexed": false,
          "internalType": "address",
          "name": "account",
          "type": "address"
        }
      ],
      "name": "Paused",
      "type": "event"
    },
    {
      "anonymous": false,
      "inputs": [
        {
          "indexed": false,
          "internalType": "address",
          "name": "account",
          "type": "address"
        }
      ],
      "name": "Unpaused",
      "type": "event"
    },
    {
      "anonymous": false,
      "inputs": [
        {
          "indexed": true,
          "internalType": "address",
          "name": "user",
          "type": "address"
        },
        {
          "indexed": false,
          "internalType": "string",
          "name": "username",
          "type": "string"
        }
      ],
      "name": "UsernameRegistered",
      "type": "event"
    },
    {
      "inputs": [
        {
          "internalType": "uint256",
          "name": "_betId",
          "type": "uint256"
        }
      ],
      "name": "acceptBet",
      "outputs": [],
      "stateMutability": "nonpayable",
      "type": "function"
    },
    {
      "inputs": [
        {
          "internalType": "address",
          "name": "",
          "type": "address"
        }
      ],
      "name": "addressToUsername",
      "outputs": [
        {
          "internalType": "string",
          "name": "",
          "type": "string"
        }
      ],
      "stateMutability": "view",
      "type": "function"
    },
    {
      "inputs": [],
      "name": "betCounter",
      "outputs": [
        {
          "internalType": "uint256",
          "name": "",
          "type": "uint256"
        }
      ],
      "stateMutability": "view",
      "type": "function"
    },
    {
      "inputs": [
        {
          "internalType": "uint256",
          "name": "",
          "type": "uint256"
        }
      ],
      "name": "bets",
      "outputs": [
        {
          "internalType": "uint256",
          "name": "betId",
          "type": "uint256"
        },
        {
          "internalType": "address",
          "name": "creator",
          "type": "address"
        },
        {
          "internalType": "address",
          "name": "opponent",
          "type": "address"
        },
        {
          "internalType": "uint256",
          "name": "amount",
          "type": "uint256"
        },
        {
          "internalType": "string",
          "name": "terms",
          "type": "string"
        },
        {
          "internalType": "uint256",
          "name": "deadline",
          "type": "uint256"
        },
        {
          "internalType": "enum MNEEBet.BetStatus",
          "name": "status",
          "type": "uint8"
        },
        {
          "internalType": "enum MNEEBet.Winner",
          "name": "winner",
          "type": "uint8"
        },
        {
          "internalType": "address",
          "name": "judge",
          "type": "address"
        },
        {
          "internalType": "uint256",
          "name": "createdAt",
          "type": "uint256"
        },
        {
          "internalType": "uint256",
          "name": "resolvedAt",
          "type": "uint256"
        }
      ],
      "stateMutability": "view",
      "type": "function"
    },
    {
      "inputs": [
        {
          "internalType": "uint256",
          "name": "_betId",
          "type": "uint256"
        }
      ],
      "name": "cancelBet",
      "outputs": [],
      "stateMutability": "nonpayable",
      "type": "function"
    },
    {
      "inputs": [
        {
          "internalType": "address",
          "name": "_opponent",
          "type": "address"
        },
        {
          "internalType": "uint256",
          "name": "_amount",
          "type": "uint256"
        },
        {
          "internalType": "string",
          "name": "_terms",
          "type": "string"
        },
        {
          "internalType": "uint256",
          "name": "_deadline",
          "type": "uint256"
        },
        {
          "internalType": "address",
          "name": "_judge",
          "type": "address"
        }
      ],
      "name": "createBet",
      "outputs": [
        {
          "internalType": "uint256",
          "name": "",
          "type": "uint256"
        }
      ],
      "stateMutability": "nonpayable",
      "type": "function"
    },
    {
      "inputs": [
        {
          "internalType": "uint256",
          "name": "_betId",
          "type": "uint256"
        }
      ],
      "name": "disputeBet",
      "outputs": [],
      "stateMutability": "nonpayable",
      "type": "function"
    },
    {
      "inputs": [
        {
          "internalType": "uint256",
          "name": "_betId",
          "type": "uint256"
        }
      ],
      "name": "emergencyWithdraw",
      "outputs": [],
      "stateMutability": "nonpayable",
      "type": "function"
    },
    {
      "inputs": [],
      "name": "getActiveBetsCount",
      "outputs": [
        {
          "internalType": "uint256",
          "name": "",
          "type": "uint256"
        }
      ],
      "stateMutability": "view",
      "type": "function"
    },
    {
      "inputs": [
        {
          "internalType": "string",
          "name": "_username",
          "type": "string"
        }
      ],
      "name": "getAddressByUsername",
      "outputs": [
        {
          "internalType": "address",
          "name": "",
          "type": "address"
        }
      ],
      "stateMutability": "view",
      "type": "function"
    },
    {
      "inputs": [
        {
          "internalType": "uint256",
          "name": "_betId",
          "type": "uint256"
        }
      ],
      "name": "getBet",
      "outputs": [
        {
          "components": [
            {
              "internalType": "uint256",
              "name": "betId",
              "type": "uint256"
            },
            {
              "internalType": "address",
              "name": "creator",
              "type": "address"
            },
            {
              "internalType": "address",
              "name": "opponent",
              "type": "address"
            },
            {
              "internalType": "uint256",
              "name": "amount",
              "type": "uint256"
            },
            {
              "internalType": "string",
              "name": "terms",
              "type": "string"
            },
            {
              "internalType": "uint256",
              "name": "deadline",
              "type": "uint256"
            },
            {
              "internalType": "enum MNEEBet.BetStatus",
              "name": "status",
              "type": "uint8"
            },
            {
              "internalType": "enum MNEEBet.Winner",
              "name": "winner",
              "type": "uint8"
            },
            {
              "internalType": "address",
              "name": "judge",
              "type": "address"
            },
            {
              "internalType": "uint256",
              "name": "createdAt",
              "type": "uint256"
            },
            {
              "internalType": "uint256",
              "name": "resolvedAt",
              "type": "uint256"
            }
          ],
          "internalType": "struct MNEEBet.Bet",
          "name": "",
          "type": "tuple"
        }
      ],
      "stateMutability": "view",
      "type": "function"
    },
    {
      "inputs": [
        {
          "internalType": "uint256",
          "name": "_startId",
          "type": "uint256"
        },
        {
          "internalType": "uint256",
          "name": "_endId",
          "type": "uint256"
        }
      ],
      "name": "getBetsInRange",
      "outputs": [
        {
          "components": [
            {
              "internalType": "uint256",
              "name": "betId",
              "type": "uint256"
            },
            {
              "internalType": "address",
              "name": "creator",
              "type": "address"
            },
            {
              "internalType": "address",
              "name": "opponent",
              "type": "address"
            },
            {
              "internalType": "uint256",
              "name": "amount",
              "type": "uint256"
            },
            {
              "internalType": "string",
              "name": "terms",
              "type": "string"
            },
            {
              "internalType": "uint256",
              "name": "deadline",
              "type": "uint256"
            },
            {
              "internalType": "enum MNEEBet.BetStatus",
              "name": "status",
              "type": "uint8"
            },
            {
              "internalType": "enum MNEEBet.Winner",
              "name": "winner",
              "type": "uint8"
            },
            {
              "internalType": "address",
              "name": "judge",
              "type": "address"
            },
            {
              "internalType": "uint256",
              "name": "createdAt",
              "type": "uint256"
            },
            {
              "internalType": "uint256",
              "name": "resolvedAt",
              "type": "uint256"
            }
          ],
          "internalType": "struct MNEEBet.Bet[]",
          "name": "",
          "type": "tuple[]"
        }
      ],
      "stateMutability": "view",
      "type": "function"
    },
    {
      "inputs": [
        {
          "internalType": "uint256",
          "name": "_betId",
          "type": "uint256"
        }
      ],
      "name": "getPayoutInfo",
      "outputs": [
        {
          "internalType": "uint256",
          "name": "amount",
          "type": "uint256"
        },
        {
          "internalType": "uint256",
          "name": "totalPot",
          "type": "uint256"
        },
        {
          "internalType": "uint256",
          "name": "winnerPayout",
          "type": "uint256"
        }
      ],
      "stateMutability": "view",
      "type": "function"
    },
    {
      "inputs": [
        {
          "internalType": "address",
          "name": "_user",
          "type": "address"
        }
      ],
      "name": "getUserBets",
      "outputs": [
        {
          "internalType": "uint256[]",
          "name": "",
          "type": "uint256[]"
        }
      ],
      "stateMutability": "view",
      "type": "function"
    },
    {
      "inputs": [
        {
          "internalType": "address",
          "name": "_user",
          "type": "address"
        }
      ],
      "name": "getUsernameByAddress",
      "outputs": [
        {
          "internalType": "string",
          "name": "",
          "type": "string"
        }
      ],
      "stateMutability": "view",
      "type": "function"
    },
    {
      "inputs": [],
      "name": "mneeToken",
      "outputs": [
        {
          "internalType": "contract IERC20",
          "name": "",
          "type": "address"
        }
      ],
      "stateMutability": "view",
      "type": "function"
    },
    {
      "inputs": [],
      "name": "owner",
      "outputs": [
        {
          "internalType": "address",
          "name": "",
          "type": "address"
        }
      ],
      "stateMutability": "view",
      "type": "function"
    },
    {
      "inputs": [],
      "name": "pause",
      "outputs": [],
      "stateMutability": "nonpayable",
      "type": "function"
    },
    {
      "inputs": [],
      "name": "paused",
      "outputs": [
        {
          "internalType": "bool",
          "name": "",
          "type": "bool"
        }
      ],
      "stateMutability": "view",
      "type": "function"
    },
    {
      "inputs": [
        {
          "internalType": "string",
          "name": "_username",
          "type": "string"
        }
      ],
      "name": "registerUsername",
      "outputs": [],
      "stateMutability": "nonpayable",
      "type": "function"
    },
    {
      "inputs": [],
      "name": "renounceOwnership",
      "outputs": [],
      "stateMutability": "nonpayable",
      "type": "function"
    },
    {
      "inputs": [
        {
          "internalType": "uint256",
          "name": "_betId",
          "type": "uint256"
        },
        {
          "internalType": "enum MNEEBet.Winner",
          "name": "_winner",
          "type": "uint8"
        }
      ],
      "name": "resolveWithJudge",
      "outputs": [],
      "stateMutability": "nonpayable",
      "type": "function"
    },
    {
      "inputs": [
        {
          "internalType": "address",
          "name": "newOwner",
          "type": "address"
        }
      ],
      "name": "transferOwnership",
      "outputs": [],
      "stateMutability": "nonpayable",
      "type": "function"
    },
    {
      "inputs": [],
      "name": "unpause",
      "outputs": [],
      "stateMutability": "nonpayable",
      "type": "function"
    },
    {
      "inputs": [
        {
          "internalType": "address",
          "name": "",
          "type": "address"
        },
        {
          "internalType": "uint256",
          "name": "",
          "type": "uint256"
        }
      ],
      "name": "userBets",
      "outputs": [
        {
          "internalType": "uint256",
          "name": "",
          "type": "uint256"
        }
      ],
      "stateMutability": "view",
      "type": "function"
    },
    {
      "inputs": [
        {
          "internalType": "string",
          "name": "",
          "type": "string"
        }
      ],
      "name": "usernameExists",
      "outputs": [
        {
          "internalType": "bool",
          "name": "",
          "type": "bool"
        }
      ],
      "stateMutability": "view",
      "type": "function"
    },
    {
      "inputs": [
        {
          "internalType": "string",
          "name": "",
          "type": "string"
        }
      ],
      "name": "usernameToAddress",
      "outputs": [
        {
          "internalType": "address",
          "name": "",
          "type": "address"
        }
      ],
      "stateMutability": "view",
      "type": "function"
    }
  ],
  "bytecode": "0x60a06040523480156200001157600080fd5b50604051620033eb380380620033eb833981016040819052620000349162000129565b600160005533806200006157604051631e4fbdf760e01b8152600060048201526024015b60405180910390fd5b6200006c81620000d7565b506001600160a01b038116620000c55760405162461bcd60e51b815260206004820152601a60248201527f496e76616c6964204d4e454520746f6b656e2061646472657373000000000000604482015260640162000058565b6001600160a01b03166080526200015b565b600180546001600160a01b038381166001600160a01b0319831681179093556040519116919082907f8be0079c531659141344cd1fd0a4f28419497f9722a3daafe3b4186f6b6457e090600090a35050565b6000602082840312156200013c57600080fd5b81516001600160a01b03811681146200015457600080fd5b9392505050565b60805161322e620001bd6000396000818161027c0152818161090601528181610f0301528181610fd2015281816112de0152818161140501528181611504015281816115a9015281816116650152818161199001526124c0015261322e6000f3fe608060405234801561001057600080fd5b50600436106101a95760003560e01c8063729b59ef116100f9578063e07a0baa11610097578063ed53afa311610071578063ed53afa3146103f2578063f2fde38b146103fa578063f309e3f91461040d578063f825f1431461043b57600080fd5b8063e07a0baa146103ac578063e4fc19cb146103cc578063ed1a998d146103df57600080fd5b80638456cb59116100d35780638456cb591461036a5780638da5cb5b146103725780639284ccf314610383578063a416f5ab146103a357600080fd5b8063729b59ef146103085780637a5c15c81461031b5780638068aa681461034957600080fd5b80635312ea8e116101665780635c975abb116101405780635c975abb146102b65780636322961d146102da5780636c0c27e1146102ed578063715018a61461030057600080fd5b80635312ea8e1461025157806354679974146102645780635b71474a1461027757600080fd5b8063061e494f146101ae57806322af00fa146101d75780632d56657d14610201578063357401f51461022157806336a94134146102365780633f4ba83a14610249575b600080fd5b6101c16101bc366004612a10565b61046f565b6040516101ce9190612b78565b60405180910390f35b6101ea6101e5366004612a10565b610636565b6040516101ce9b9a99989796959493929190612b92565b61021461020f366004612c30565b610733565b6040516101ce9190612c4b565b61023461022f366004612a10565b61079f565b005b610234610244366004612d32565b6109cb565b610234610d05565b61023461025f366004612a10565b610da2565b610234610272366004612d6f565b61106f565b61029e7f000000000000000000000000000000000000000000000000000000000000000081565b6040516001600160a01b0390911681526020016101ce565b6001546102ca90600160a01b900460ff1681565b60405190151581526020016101ce565b61029e6102e8366004612d32565b611770565b6102346102fb366004612a10565b6117a1565b610234611ade565b610234610316366004612a10565b611af2565b61032e610329366004612a10565b611c51565b604080519384526020840192909252908201526060016101ce565b61035c610357366004612da3565b611e1c565b6040519081526020016101ce565b610234611e4d565b6001546001600160a01b031661029e565b610396610391366004612dcd565b611ec2565b6040516101ce9190612def565b61035c60035481565b6103bf6103ba366004612c30565b61219a565b6040516101ce9190612e51565b61035c6103da366004612e64565b612234565b6103bf6103ed366004612c30565b61279d565b61035c61283f565b610234610408366004612c30565b6128ca565b6102ca61041b366004612d32565b805160208183018101805160078252928201919093012091525460ff1681565b61029e610449366004612d32565b80516020818301810180516005825292820191909301209152546001600160a01b031681565b6104776129ae565b8160035481106104a25760405162461bcd60e51b815260040161049990612ed6565b60405180910390fd5b6000838152600260208181526040928390208351610160810185528154815260018201546001600160a01b039081169382019390935292810154909116928201929092526003820154606082015260048201805491929160808401919061050890612f02565b80601f016020809104026020016040519081016040528092919081815260200182805461053490612f02565b80156105815780601f1061055657610100808354040283529160200191610581565b820191906000526020600020905b81548152906001019060200180831161056457829003601f168201915b505050918352505060058201546020820152600682015460409091019060ff1660048111156105b2576105b2612a79565b60048111156105c3576105c3612a79565b81526020016006820160019054906101000a900460ff1660038111156105eb576105eb612a79565b60038111156105fc576105fc612a79565b815260068201546201000090046001600160a01b031660208201526007820154604082015260089091015460609091015291505b50919050565b60026020819052600091825260409091208054600182015492820154600383015460048401805493956001600160a01b039081169593169391929161067a90612f02565b80601f01602080910402602001604051908101604052809291908181526020018280546106a690612f02565b80156106f35780601f106106c8576101008083540402835291602001916106f3565b820191906000526020600020905b8154815290600101906020018083116106d657829003601f168201915b505050506005830154600684015460078501546008909501549394919360ff808316945061010083041692620100009092046001600160a01b031691908b565b6001600160a01b03811660009081526004602090815260409182902080548351818402810184019094528084526060939283018282801561079357602002820191906000526020600020905b81548152602001906001019080831161077f575b50505050509050919050565b600154600160a01b900460ff16156107c95760405162461bcd60e51b815260040161049990612f36565b6107d1612905565b8060035481106107f35760405162461bcd60e51b815260040161049990612ed6565b600082815260026020526040812090600682015460ff16600481111561081b5761081b612a79565b146108685760405162461bcd60e51b815260206004820152601960248201527f43616e206f6e6c792063616e63656c206f70656e2062657473000000000000006044820152606401610499565b60018101546001600160a01b031633146108c45760405162461bcd60e51b815260206004820152601760248201527f4f6e6c792063726561746f722063616e2063616e63656c0000000000000000006044820152606401610499565b60068101805460ff1916600390811790915560018201549082015460405163a9059cbb60e01b81526001600160a01b03928316600482015260248101919091527f00000000000000000000000000000000000000000000000000000000000000009091169063a9059cbb906044016020604051808303816000875af1158015610951573d6000803e3d6000fd5b505050506040513d601f19601f820116820180604052508101906109759190612f62565b6109915760405162461bcd60e51b815260040161049990612f84565b60405183907fe3906e8d1e2167ef706b023e6e83af697db5cd38f233c71bf5021b26b316c3a290600090a250506109c86001600055565b50565b600154600160a01b900460ff16156109f55760405162461bcd60e51b815260040161049990612f36565b6003815110158015610a0957506014815111155b610a555760405162461bcd60e51b815260206004820181905260248201527f557365726e616d65206d75737420626520332d323020636861726163746572736044820152606401610499565b600781604051610a659190612fad565b9081526040519081900360200190205460ff1615610abe5760405162461bcd60e51b81526020600482015260166024820152752ab9b2b93730b6b29030b63932b0b23c903a30b5b2b760511b6044820152606401610499565b3360009081526006602052604090208054610ad890612f02565b159050610b275760405162461bcd60e51b815260206004820152601c60248201527f4164647265737320616c72656164792068617320757365726e616d65000000006044820152606401610499565b3360009081526006602052604081208054610b4190612f02565b80601f0160208091040260200160405190810160405280929190818152602001828054610b6d90612f02565b8015610bba5780601f10610b8f57610100808354040283529160200191610bba565b820191906000526020600020905b815481529060010190602001808311610b9d57829003601f168201915b50505050509050600081511115610c3f576000600782604051610bdd9190612fad565b908152604051908190036020018120805492151560ff1990931692909217909155600090600590610c0f908490612fad565b90815260405190819003602001902080546001600160a01b03929092166001600160a01b03199092169190911790555b33600583604051610c509190612fad565b908152604080516020928190038301902080546001600160a01b0319166001600160a01b039490941693909317909255336000908152600690915220610c968382613018565b506001600783604051610ca99190612fad565b908152604051908190036020018120805492151560ff199093169290921790915533907f4afe13536e3149cddd8c9a8df1580cd5e909fd13c41e7dfead2e38d1141dad5d90610cf9908590612e51565b60405180910390a25050565b610d0d61292f565b600154600160a01b900460ff16610d5f5760405162461bcd60e51b815260206004820152601660248201527510dbdb9d1c9858dd081a5cc81b9bdd081c185d5cd95960521b6044820152606401610499565b6001805460ff60a01b191690556040513381527f5db9ee0a495bf2e6ff9c91a7834c1ba4fdd244a5e8aa4e537bd38aeae4b073aa906020015b60405180910390a1565b610daa61292f565b806003548110610dcc5760405162461bcd60e51b815260040161049990612ed6565b60008281526002602052604090206004600682015460ff166004811115610df557610df5612a79565b1480610e1957506001600682015460ff166004811115610e1757610e17612a79565b145b80610e3457506005810154610e319062278d006130ee565b42115b610e8e5760405162461bcd60e51b815260206004820152602560248201527f4e6f7420656c696769626c6520666f7220656d657267656e63792077697468646044820152641c985dd85b60da1b6064820152608401610499565b6001600682015460ff166004811115610ea957610ea9612a79565b1480610ecd57506004600682015460ff166004811115610ecb57610ecb612a79565b145b1561105d576001810154600382015460405163a9059cbb60e01b81526001600160a01b03928316600482015260248101919091527f00000000000000000000000000000000000000000000000000000000000000009091169063a9059cbb906044016020604051808303816000875af1158015610f4e573d6000803e3d6000fd5b505050506040513d601f19601f82011682018060405250810190610f729190612f62565b610f8e5760405162461bcd60e51b815260040161049990612f84565b60028101546001600160a01b03161561105d576002810154600382015460405163a9059cbb60e01b81526001600160a01b03928316600482015260248101919091527f00000000000000000000000000000000000000000000000000000000000000009091169063a9059cbb906044016020604051808303816000875af115801561101d573d6000803e3d6000fd5b505050506040513d601f19601f820116820180604052508101906110419190612f62565b61105d5760405162461bcd60e51b815260040161049990612f84565b600601805460ff191660031790555050565b600154600160a01b900460ff16156110995760405162461bcd60e51b815260040161049990612f36565b8160035481106110bb5760405162461bcd60e51b815260040161049990612ed6565b60008381526002602052604090206001600682015460ff1660048111156110e4576110e4612a79565b146111225760405162461bcd60e51b815260206004820152600e60248201526d426574206e6f742061637469766560901b6044820152606401610499565b60068101546201000090046001600160a01b0316331461117d5760405162461bcd60e51b81526020600482015260166024820152754f6e6c79206a756467652063616e207265736f6c766560501b6044820152606401610499565b80600501544210156111c85760405162461bcd60e51b8152602060048201526014602482015273111958591b1a5b99481b9bdd081c995858da195960621b6044820152606401610499565b60008360038111156111dc576111dc612a79565b0361121f5760405162461bcd60e51b815260206004820152601360248201527226bab9ba1039b832b1b4b33c903bb4b73732b960691b6044820152606401610499565b600183600381111561123357611233612a79565b14806112505750600283600381111561124e5761124e612a79565b145b8061126c5750600383600381111561126a5761126a612a79565b145b6112a95760405162461bcd60e51b815260206004820152600e60248201526d24b73b30b634b2103bb4b73732b960911b6044820152606401610499565b6000816003015460026112bc9190613101565b6040516370a0823160e01b815230600482015290915081906001600160a01b037f000000000000000000000000000000000000000000000000000000000000000016906370a0823190602401602060405180830381865afa158015611325573d6000803e3d6000fd5b505050506040513d601f19601f820116820180604052508101906113499190613118565b10156113975760405162461bcd60e51b815260206004820152601d60248201527f496e73756666696369656e7420636f6e74726163742062616c616e63650000006044820152606401610499565b60018460038111156113ab576113ab612a79565b036114965760028201546001600160a01b03166113da5760405162461bcd60e51b815260040161049990613131565b600182015460405163a9059cbb60e01b81526001600160a01b039182166004820152602481018390527f00000000000000000000000000000000000000000000000000000000000000009091169063a9059cbb906044015b6020604051808303816000875af1158015611451573d6000803e3d6000fd5b505050506040513d601f19601f820116820180604052508101906114759190612f62565b6114915760405162461bcd60e51b815260040161049990612f84565b6116f0565b60028460038111156114aa576114aa612a79565b036115355760028201546001600160a01b03166114d95760405162461bcd60e51b815260040161049990613131565b600282015460405163a9059cbb60e01b81526001600160a01b039182166004820152602481018390527f00000000000000000000000000000000000000000000000000000000000000009091169063a9059cbb90604401611432565b600384600381111561154957611549612a79565b036116f05760028201546001600160a01b03166115785760405162461bcd60e51b815260040161049990613131565b6001820154600383015460405163a9059cbb60e01b81526001600160a01b03928316600482015260248101919091527f00000000000000000000000000000000000000000000000000000000000000009091169063a9059cbb906044016020604051808303816000875af11580156115f4573d6000803e3d6000fd5b505050506040513d601f19601f820116820180604052508101906116189190612f62565b6116345760405162461bcd60e51b815260040161049990612f84565b6002820154600383015460405163a9059cbb60e01b81526001600160a01b03928316600482015260248101919091527f00000000000000000000000000000000000000000000000000000000000000009091169063a9059cbb906044016020604051808303816000875af11580156116b0573d6000803e3d6000fd5b505050506040513d601f19601f820116820180604052508101906116d49190612f62565b6116f05760405162461bcd60e51b815260040161049990612f84565b60068201805485919061ff00191661010083600381111561171357611713612a79565b021790555060068201805460ff1916600217905542600883015560405185907fa56e14a4e826ac13fb8b5afa218fa22c1fca368ca75601d942fb7fee779cb57f906117619087903390613156565b60405180910390a25050505050565b60006005826040516117829190612fad565b908152604051908190036020019020546001600160a01b031692915050565b600154600160a01b900460ff16156117cb5760405162461bcd60e51b815260040161049990612f36565b6117d3612905565b8060035481106117f55760405162461bcd60e51b815260040161049990612ed6565b600082815260026020526040812090600682015460ff16600481111561181d5761181d612a79565b146118595760405162461bcd60e51b815260206004820152600c60248201526b2132ba103737ba1037b832b760a11b6044820152606401610499565b60028101546001600160a01b0316158061187f575060028101546001600160a01b031633145b6118cb5760405162461bcd60e51b815260206004820152601760248201527f4e6f742064657369676e61746564206f70706f6e656e740000000000000000006044820152606401610499565b60018101546001600160a01b0316330361191f5760405162461bcd60e51b815260206004820152601560248201527410d85b9b9bdd081858d8d95c1d081bdddb8818995d605a1b6044820152606401610499565b806005015442106119685760405162461bcd60e51b815260206004820152601360248201527210995d08191958591b1a5b99481c185cdcd959606a1b6044820152606401610499565b60038101546040516323b872dd60e01b815233600482015230602482015260448101919091527f00000000000000000000000000000000000000000000000000000000000000006001600160a01b0316906323b872dd906064016020604051808303816000875af11580156119e1573d6000803e3d6000fd5b505050506040513d601f19601f82011682018060405250810190611a059190612f62565b611a215760405162461bcd60e51b815260040161049990612f84565b6002810180546001600160a01b0319163390811790915560068201805460ff191660019081179091556000828152600460209081526040808320805494850181558352918190209092018690556003840154905190815285917f428e2adc3c9573a13d5638bdc68e4600dbadf9e74911471339c409059efb4a8c910160405180910390a3604051339084907fb727a22534e43d337addefe6245e691859b29f7bf356bc7e6d77ff92070fe12490600090a350506109c86001600055565b611ae661292f565b611af0600061295c565b565b600154600160a01b900460ff1615611b1c5760405162461bcd60e51b815260040161049990612f36565b806003548110611b3e5760405162461bcd60e51b815260040161049990612ed6565b600082815260026020819052604090912090600682015460ff166004811115611b6957611b69612a79565b14611ba95760405162461bcd60e51b815260206004820152601060248201526f10995d081b9bdd081c995cdbdb1d995960821b6044820152606401610499565b60018101546001600160a01b0316331480611bd0575060028101546001600160a01b031633145b611c105760405162461bcd60e51b8152602060048201526011602482015270139bdd0818481c185c9d1a58da5c185b9d607a1b6044820152606401610499565b60068101805460ff19166004179055604051339084907f8cecdeb3d64c546c15aa061ae9c77942884eddbb986323a1be3d4bdf4bb33da390600090a3505050565b6000806000836003548110611c785760405162461bcd60e51b815260040161049990612ed6565b60008581526002602081815260408084208151610160810183528154815260018201546001600160a01b0390811694820194909452938101549092169083015260038101546060830152600481018054608084019190611cd790612f02565b80601f0160208091040260200160405190810160405280929190818152602001828054611d0390612f02565b8015611d505780601f10611d2557610100808354040283529160200191611d50565b820191906000526020600020905b815481529060010190602001808311611d3357829003601f168201915b505050918352505060058201546020820152600682015460409091019060ff166004811115611d8157611d81612a79565b6004811115611d9257611d92612a79565b81526020016006820160019054906101000a900460ff166003811115611dba57611dba612a79565b6003811115611dcb57611dcb612a79565b815260068201546201000090046001600160a01b031660208201526007820154604082015260089091015460609182015281015195509050611e0e856002613101565b935083925050509193909250565b60046020528160005260406000208181548110611e3857600080fd5b90600052602060002001600091509150505481565b611e5561292f565b600154600160a01b900460ff1615611e7f5760405162461bcd60e51b815260040161049990612f36565b6001805460ff60a01b1916600160a01b1790556040513381527f62e78cea01bee320cd4e420270b5ea74000d11b0c9f74754ebdbfc544b05a25890602001610d98565b6060600354821115611f165760405162461bcd60e51b815260206004820152601a60248201527f456e6420494420657863656564732062657420636f756e7465720000000000006044820152606401610499565b818310611f555760405162461bcd60e51b815260206004820152600d60248201526c496e76616c69642072616e676560981b6044820152606401610499565b6000611f61848461317c565b905060008167ffffffffffffffff811115611f7e57611f7e612c8f565b604051908082528060200260200182016040528015611fb757816020015b611fa46129ae565b815260200190600190039081611f9c5790505b50905060005b8281101561218f5760026000611fd383896130ee565b815260208082019290925260409081016000208151610160810183528154815260018201546001600160a01b03908116948201949094526002820154909316918301919091526003810154606083015260048101805460808401919061203890612f02565b80601f016020809104026020016040519081016040528092919081815260200182805461206490612f02565b80156120b15780601f10612086576101008083540402835291602001916120b1565b820191906000526020600020905b81548152906001019060200180831161209457829003601f168201915b505050918352505060058201546020820152600682015460409091019060ff1660048111156120e2576120e2612a79565b60048111156120f3576120f3612a79565b81526020016006820160019054906101000a900460ff16600381111561211b5761211b612a79565b600381111561212c5761212c612a79565b815260068201546201000090046001600160a01b031660208201526007820154604082015260089091015460609091015282518390839081106121715761217161318f565b60200260200101819052508080612187906131a5565b915050611fbd565b509150505b92915050565b600660205260009081526040902080546121b390612f02565b80601f01602080910402602001604051908101604052809291908181526020018280546121df90612f02565b801561222c5780601f106122015761010080835404028352916020019161222c565b820191906000526020600020905b81548152906001019060200180831161220f57829003601f168201915b505050505081565b600154600090600160a01b900460ff16156122615760405162461bcd60e51b815260040161049990612f36565b612269612905565b600085116122ae5760405162461bcd60e51b81526020600482015260126024820152710416d6f756e74206d757374206265203e20360741b6044820152606401610499565b4283116122fd5760405162461bcd60e51b815260206004820152601a60248201527f446561646c696e65206d75737420626520696e206675747572650000000000006044820152606401610499565b60008451116123465760405162461bcd60e51b81526020600482015260156024820152745465726d732063616e6e6f7420626520656d70747960581b6044820152606401610499565b336001600160a01b0387160361239e5760405162461bcd60e51b815260206004820152601b60248201527f43616e6e6f742062657420616761696e737420796f757273656c6600000000006044820152606401610499565b6001600160a01b0382166123e55760405162461bcd60e51b815260206004820152600e60248201526d129d5919d9481c995c5d5a5c995960921b6044820152606401610499565b336001600160a01b0383160361243d5760405162461bcd60e51b815260206004820152601760248201527f4a756467652063616e6e6f742062652063726561746f720000000000000000006044820152606401610499565b856001600160a01b0316826001600160a01b03160361249e5760405162461bcd60e51b815260206004820152601860248201527f4a756467652063616e6e6f74206265206f70706f6e656e7400000000000000006044820152606401610499565b6040516323b872dd60e01b8152336004820152306024820152604481018690527f00000000000000000000000000000000000000000000000000000000000000006001600160a01b0316906323b872dd906064016020604051808303816000875af1158015612511573d6000803e3d6000fd5b505050506040513d601f19601f820116820180604052508101906125359190612f62565b6125515760405162461bcd60e51b815260040161049990612f84565b6003805460009182612562836131a5565b919050559050604051806101600160405280828152602001336001600160a01b03168152602001886001600160a01b03168152602001878152602001868152602001858152602001600060048111156125bd576125bd612a79565b8152602001600081526001600160a01b03808616602080840191909152426040808501919091526000606094850181905286815260028084529082902086518155928601516001840180549186166001600160a01b0319928316179055918601519083018054919094169116179091559082015160038201556080820151600482019061264a9082613018565b5060a0820151600582015560c082015160068201805460ff1916600183600481111561267857612678612a79565b021790555060e082015160068201805461ff0019166101008360038111156126a2576126a2612a79565b021790555061010082015160068201805462010000600160b01b031916620100006001600160a01b039384160217905561012083015160078301556101409092015160089091015533600081815260046020908152604080832080546001810182559084529190922001849055519189169183907fe12eb2a4c1caa6e7f0b2fb6263fb64df0a507d061203d7ef0a1c988179fe1eb390612749908b908b908b908b906131be565b60405180910390a4604051868152339082907f428e2adc3c9573a13d5638bdc68e4600dbadf9e74911471339c409059efb4a8c9060200160405180910390a390506127946001600055565b95945050505050565b6001600160a01b03811660009081526006602052604090208054606091906127c490612f02565b80601f01602080910402602001604051908101604052809291908181526020018280546127f090612f02565b80156107935780601f1061281257610100808354040283529160200191610793565b820191906000526020600020905b8154815290600101906020018083116128205750939695505050505050565b600080805b60035481101561063057600160008281526002602052604090206006015460ff16600481111561287657612876612a79565b14806128a5575060008181526002602052604081206006015460ff1660048111156128a3576128a3612a79565b145b156128b857816128b4816131a5565b9250505b806128c2816131a5565b915050612844565b6128d261292f565b6001600160a01b0381166128fc57604051631e4fbdf760e01b815260006004820152602401610499565b6109c88161295c565b60026000540361292857604051633ee5aeb560e01b815260040160405180910390fd5b6002600055565b6001546001600160a01b03163314611af05760405163118cdaa760e01b8152336004820152602401610499565b600180546001600160a01b038381166001600160a01b0319831681179093556040519116919082907f8be0079c531659141344cd1fd0a4f28419497f9722a3daafe3b4186f6b6457e090600090a35050565b60408051610160810182526000808252602082018190529181018290526060808201839052608082015260a081018290529060c082019081526020016000815260200160006001600160a01b0316815260200160008152602001600081525090565b600060208284031215612a2257600080fd5b5035919050565b60005b83811015612a44578181015183820152602001612a2c565b50506000910152565b60008151808452612a65816020860160208601612a29565b601f01601f19169290920160200192915050565b634e487b7160e01b600052602160045260246000fd5b60058110612a9f57612a9f612a79565b9052565b60048110612a9f57612a9f612a79565b6000610160825184526020830151612ad660208601826001600160a01b03169052565b506040830151612af160408601826001600160a01b03169052565b50606083015160608501526080830151816080860152612b1382860182612a4d565b91505060a083015160a085015260c0830151612b3260c0860182612a8f565b5060e0830151612b4560e0860182612aa3565b50610100838101516001600160a01b03169085015261012080840151908501526101409283015192909301919091525090565b602081526000612b8b6020830184612ab3565b9392505050565b8b81526001600160a01b038b811660208301528a81166040830152606082018a905261016060808301819052600091612bcd8483018c612a4d565b92508960a0850152612be260c085018a612a8f565b612bef60e0850189612aa3565b9590951661010083015261012082019390935261014001529998505050505050505050565b80356001600160a01b0381168114612c2b57600080fd5b919050565b600060208284031215612c4257600080fd5b612b8b82612c14565b6020808252825182820181905260009190848201906040850190845b81811015612c8357835183529284019291840191600101612c67565b50909695505050505050565b634e487b7160e01b600052604160045260246000fd5b600082601f830112612cb657600080fd5b813567ffffffffffffffff80821115612cd157612cd1612c8f565b604051601f8301601f19908116603f01168101908282118183101715612cf957612cf9612c8f565b81604052838152866020858801011115612d1257600080fd5b836020870160208301376000602085830101528094505050505092915050565b600060208284031215612d4457600080fd5b813567ffffffffffffffff811115612d5b57600080fd5b612d6784828501612ca5565b949350505050565b60008060408385031215612d8257600080fd5b82359150602083013560048110612d9857600080fd5b809150509250929050565b60008060408385031215612db657600080fd5b612dbf83612c14565b946020939093013593505050565b60008060408385031215612de057600080fd5b50508035926020909101359150565b6000602080830181845280855180835260408601915060408160051b870101925083870160005b82811015612e4457603f19888603018452612e32858351612ab3565b94509285019290850190600101612e16565b5092979650505050505050565b602081526000612b8b6020830184612a4d565b600080600080600060a08688031215612e7c57600080fd5b612e8586612c14565b945060208601359350604086013567ffffffffffffffff811115612ea857600080fd5b612eb488828901612ca5565b93505060608601359150612eca60808701612c14565b90509295509295909350565b60208082526012908201527110995d08191bd95cc81b9bdd08195e1a5cdd60721b604082015260600190565b600181811c90821680612f1657607f821691505b60208210810361063057634e487b7160e01b600052602260045260246000fd5b60208082526012908201527110dbdb9d1c9858dd081a5cc81c185d5cd95960721b604082015260600190565b600060208284031215612f7457600080fd5b81518015158114612b8b57600080fd5b6020808252600f908201526e151c985b9cd9995c8819985a5b1959608a1b604082015260600190565b60008251612fbf818460208701612a29565b9190910192915050565b601f82111561301357600081815260208120601f850160051c81016020861015612ff05750805b601f850160051c820191505b8181101561300f57828155600101612ffc565b5050505b505050565b815167ffffffffffffffff81111561303257613032612c8f565b613046816130408454612f02565b84612fc9565b602080601f83116001811461307b57600084156130635750858301515b600019600386901b1c1916600185901b17855561300f565b600085815260208120601f198616915b828110156130aa5788860151825594840194600190910190840161308b565b50858210156130c85787850151600019600388901b60f8161c191681555b5050505050600190811b01905550565b634e487b7160e01b600052601160045260246000fd5b80820180821115612194576121946130d8565b8082028115828204841417612194576121946130d8565b60006020828403121561312a57600080fd5b5051919050565b6020808252600b908201526a139bc81bdc1c1bdb995b9d60aa1b604082015260600190565b604081016131648285612aa3565b6001600160a01b039290921660209190910152919050565b81810381811115612194576121946130d8565b634e487b7160e01b600052603260045260246000fd5b6000600182016131b7576131b76130d8565b5060010190565b8481526080602082015260006131d76080830186612a4d565b6040830194909452506001600160a01b03919091166060909101529291505056fea2646970667358221220f1bd368ea57955ff7b173d542f9eff3bf35f49a5fc16415d51a8107dd8744dff64736f6c63430008140033",
  "linkReferences": {},
  "deployedLinkReferences": {}
}